{
  "contractName": "Halal",
  "abi": [
    {
      "anonymous": false,
      "inputs": [
        {
          "indexed": false,
          "internalType": "uint256",
          "name": "id",
          "type": "uint256"
        },
        {
          "indexed": false,
          "internalType": "uint256",
          "name": "jakimCertificateId",
          "type": "uint256"
        }
      ],
      "name": "CertificateValidationFailed",
      "type": "event"
    },
    {
      "anonymous": false,
      "inputs": [
        {
          "indexed": false,
          "internalType": "uint256",
          "name": "id",
          "type": "uint256"
        },
        {
          "indexed": false,
          "internalType": "int256",
          "name": "temperature",
          "type": "int256"
        },
        {
          "indexed": false,
          "internalType": "uint256",
          "name": "humidity",
          "type": "uint256"
        },
        {
          "indexed": false,
          "internalType": "bool",
          "name": "isContaminated",
          "type": "bool"
        },
        {
          "indexed": false,
          "internalType": "uint256",
          "name": "jakimCertificateId",
          "type": "uint256"
        },
        {
          "indexed": false,
          "internalType": "bool",
          "name": "isHalal",
          "type": "bool"
        }
      ],
      "name": "MeatStorageAdded",
      "type": "event"
    },
    {
      "anonymous": false,
      "inputs": [
        {
          "indexed": false,
          "internalType": "uint256",
          "name": "id",
          "type": "uint256"
        }
      ],
      "name": "MeatStorageDeleted",
      "type": "event"
    },
    {
      "anonymous": false,
      "inputs": [
        {
          "indexed": false,
          "internalType": "uint256",
          "name": "id",
          "type": "uint256"
        },
        {
          "indexed": false,
          "internalType": "int256",
          "name": "temperature",
          "type": "int256"
        },
        {
          "indexed": false,
          "internalType": "uint256",
          "name": "humidity",
          "type": "uint256"
        },
        {
          "indexed": false,
          "internalType": "bool",
          "name": "isContaminated",
          "type": "bool"
        },
        {
          "indexed": false,
          "internalType": "uint256",
          "name": "jakimCertificateId",
          "type": "uint256"
        },
        {
          "indexed": false,
          "internalType": "bool",
          "name": "isHalal",
          "type": "bool"
        }
      ],
      "name": "MeatStorageUpdated",
      "type": "event"
    },
    {
      "constant": true,
      "inputs": [],
      "name": "meatStorageCount",
      "outputs": [
        {
          "internalType": "uint256",
          "name": "",
          "type": "uint256"
        }
      ],
      "payable": false,
      "stateMutability": "view",
      "type": "function"
    },
    {
      "constant": true,
      "inputs": [
        {
          "internalType": "uint256",
          "name": "",
          "type": "uint256"
        }
      ],
      "name": "meatStorages",
      "outputs": [
        {
          "internalType": "uint256",
          "name": "id",
          "type": "uint256"
        },
        {
          "internalType": "int256",
          "name": "temperature",
          "type": "int256"
        },
        {
          "internalType": "uint256",
          "name": "humidity",
          "type": "uint256"
        },
        {
          "internalType": "bool",
          "name": "isContaminated",
          "type": "bool"
        },
        {
          "internalType": "uint256",
          "name": "jakimCertificateId",
          "type": "uint256"
        },
        {
          "internalType": "bool",
          "name": "isHalal",
          "type": "bool"
        }
      ],
      "payable": false,
      "stateMutability": "view",
      "type": "function"
    },
    {
      "constant": true,
      "inputs": [
        {
          "internalType": "uint256",
          "name": "",
          "type": "uint256"
        }
      ],
      "name": "predefinedJakimCertificates",
      "outputs": [
        {
          "internalType": "uint256",
          "name": "",
          "type": "uint256"
        }
      ],
      "payable": false,
      "stateMutability": "view",
      "type": "function"
    },
    {
      "constant": false,
      "inputs": [
        {
          "internalType": "uint256",
          "name": "_id",
          "type": "uint256"
        },
        {
          "internalType": "int256",
          "name": "_temperature",
          "type": "int256"
        },
        {
          "internalType": "uint256",
          "name": "_humidity",
          "type": "uint256"
        },
        {
          "internalType": "bool",
          "name": "_isContaminated",
          "type": "bool"
        },
        {
          "internalType": "uint256",
          "name": "_jakimCertificateId",
          "type": "uint256"
        }
      ],
      "name": "addMeatStorage",
      "outputs": [],
      "payable": false,
      "stateMutability": "nonpayable",
      "type": "function"
    },
    {
      "constant": false,
      "inputs": [
        {
          "internalType": "uint256",
          "name": "_id",
          "type": "uint256"
        },
        {
          "internalType": "int256",
          "name": "_temperature",
          "type": "int256"
        },
        {
          "internalType": "uint256",
          "name": "_humidity",
          "type": "uint256"
        },
        {
          "internalType": "bool",
          "name": "_isContaminated",
          "type": "bool"
        },
        {
          "internalType": "uint256",
          "name": "_jakimCertificateId",
          "type": "uint256"
        }
      ],
      "name": "updateMeatStorage",
      "outputs": [],
      "payable": false,
      "stateMutability": "nonpayable",
      "type": "function"
    },
    {
      "constant": false,
      "inputs": [
        {
          "internalType": "uint256",
          "name": "_id",
          "type": "uint256"
        }
      ],
      "name": "deleteMeatStorage",
      "outputs": [],
      "payable": false,
      "stateMutability": "nonpayable",
      "type": "function"
    },
    {
      "constant": true,
      "inputs": [
        {
          "internalType": "uint256",
          "name": "_id",
          "type": "uint256"
        }
      ],
      "name": "getMeatStorage",
      "outputs": [
        {
          "internalType": "uint256",
          "name": "",
          "type": "uint256"
        },
        {
          "internalType": "int256",
          "name": "",
          "type": "int256"
        },
        {
          "internalType": "uint256",
          "name": "",
          "type": "uint256"
        },
        {
          "internalType": "bool",
          "name": "",
          "type": "bool"
        },
        {
          "internalType": "uint256",
          "name": "",
          "type": "uint256"
        },
        {
          "internalType": "bool",
          "name": "",
          "type": "bool"
        }
      ],
      "payable": false,
      "stateMutability": "view",
      "type": "function"
    }
  ],
  "bytecode": "0x6080604052604051806102c001604052806528457128aa9065ffffffffffff168152602001654dbcbb0c811165ffffffffffff168152602001651554e09ab89a65ffffffffffff1681526020016553ffede9c93f65ffffffffffff1681526020016531602ed9d35165ffffffffffff16815260200165293de198dbf665ffffffffffff1681526020016538cf6c224f1665ffffffffffff1681526020016516593edc739e65ffffffffffff168152602001654ce8bfb576f565ffffffffffff168152602001651f6f2ce0ac7065ffffffffffff1681526020016542f85fc7b18e65ffffffffffff168152602001651f974910ff5665ffffffffffff1681526020016542d0f680526965ffffffffffff1681526020016558a69e4d28bb65ffffffffffff168152602001652740354590fa65ffffffffffff168152602001651f274b4b868565ffffffffffff168152602001654501ab7cbcc365ffffffffffff1681526020016531e1fc108f6b65ffffffffffff168152602001650ddb7d139a6765ffffffffffff16815260200165475b473836f365ffffffffffff168152602001654ce8bb87f37e65ffffffffffff1681526020016542d0f797812765ffffffffffff1681525060029060166101d69291906101e9565b503480156101e357600080fd5b50610265565b82805482825590600052602060002090810192821561022f579160200282015b8281111561022e578251829065ffffffffffff16905591602001919060010190610209565b5b50905061023c9190610240565b5090565b61026291905b8082111561025e576000816000905550600101610246565b5090565b90565b610a00806102746000396000f3fe608060405234801561001057600080fd5b506004361061007d5760003560e01c80638869f83d1161005b5780638869f83d1461016557806392d9ac74146101bd578063e9eabfae146101ff578063fa1b4cb71461026c5761007d565b80633dcc43e5146100825780634cb33fc4146100ef578063685dc4561461010d575b600080fd5b6100ae6004803603602081101561009857600080fd5b810190808035906020019092919050505061029a565b604051808781526020018681526020018581526020018415151515815260200183815260200182151515158152602001965050505050505060405180910390f35b6100f76102f0565b6040518082815260200191505060405180910390f35b610163600480360360a081101561012357600080fd5b81019080803590602001909291908035906020019092919080359060200190929190803515159060200190929190803590602001909291905050506102f6565b005b6101bb600480360360a081101561017b57600080fd5b8101908080359060200190929190803590602001909291908035906020019092919080351515906020019092919080359060200190929190505050610578565b005b6101e9600480360360208110156101d357600080fd5b81019080803590602001909291905050506107cc565b6040518082815260200191505060405180910390f35b61022b6004803603602081101561021557600080fd5b81019080803590602001909291905050506107ed565b604051808781526020018681526020018581526020018415151515815260200183815260200182151515158152602001965050505050505060405180910390f35b6102986004803603602081101561028257600080fd5b810190808035906020019092919050505061085a565b005b60006020528060005260406000206000915090508060000154908060010154908060020154908060030160009054906101000a900460ff16908060040154908060050160009054906101000a900460ff16905086565b60015481565b60008511801561030857506001548511155b61037a576040517f08c379a000000000000000000000000000000000000000000000000000000000815260040180806020018281038252600a8152602001807f496e76616c69642049440000000000000000000000000000000000000000000081525060200191505060405180910390fd5b60008060008781526020019081526020016000209050600061039b83610975565b80156103c757507fffffffffffffffffffffffffffffffffffffffffffffffffffffffffffffffee8613155b80156103d1575083155b90506040518060c0016040528088815260200160008814156103f75783600101546103f9565b875b81526020016000871415610411578360020154610413565b865b815260200185151581526020016000851415610433578360040154610435565b845b815260200182151581525060008089815260200190815260200160002060008201518160000155602082015181600101556040820151816002015560608201518160030160006101000a81548160ff0219169083151502179055506080820151816004015560a08201518160050160006101000a81548160ff021916908315150217905550905050801561052f577f2547b2bd9a0be54b289a0c42680e49b2dec041d662b9427746ce26255d2de028878787878786604051808781526020018681526020018581526020018415151515815260200183815260200182151515158152602001965050505050505060405180910390a161056f565b7fd9d43271c038e60a0a2761b91b2989001f18ad538d18870e2ed4298adee4ab908784604051808381526020018281526020019250505060405180910390a15b50505050505050565b60008511801561059d5750600080600087815260200190815260200160002060000154145b61060f576040517f08c379a00000000000000000000000000000000000000000000000000000000081526004018080602001828103825260118152602001807f494420616c72656164792065786973747300000000000000000000000000000081525060200191505060405180910390fd5b600061061a82610975565b801561064657507fffffffffffffffffffffffffffffffffffffffffffffffffffffffffffffffee8513155b8015610650575082155b90506001600081548092919060010191905055506040518060c00160405280878152602001868152602001858152602001841515815260200183815260200182151581525060008088815260200190815260200160002060008201518160000155602082015181600101556040820151816002015560608201518160030160006101000a81548160ff0219169083151502179055506080820151816004015560a08201518160050160006101000a81548160ff0219169083151502179055509050508015610784577f2de90b18fd59571ce7f5300c8962fb2abbd51b745d58b2a7941e6336b2d98fea868686868686604051808781526020018681526020018581526020018415151515815260200183815260200182151515158152602001965050505050505060405180910390a16107c4565b7fd9d43271c038e60a0a2761b91b2989001f18ad538d18870e2ed4298adee4ab908683604051808381526020018281526020019250505060405180910390a15b505050505050565b600281815481106107d957fe5b906000526020600020016000915090505481565b600080600080600080600080600089815260200190815260200160002090508060000154816001015482600201548360030160009054906101000a900460ff1684600401548560050160009054906101000a900460ff169650965096509650965096505091939550919395565b60008111801561086c57506001548111155b6108de576040517f08c379a000000000000000000000000000000000000000000000000000000000815260040180806020018281038252600a8152602001807f496e76616c69642049440000000000000000000000000000000000000000000081525060200191505060405180910390fd5b600080828152602001908152602001600020600080820160009055600182016000905560028201600090556003820160006101000a81549060ff021916905560048201600090556005820160006101000a81549060ff021916905550507f0a922b8829af6c355e2548eeedf3093be0511335cad5f454566a47a1ea789d0d816040518082815260200191505060405180910390a150565b600080600090505b6002805490508110156109c057826002828154811061099857fe5b906000526020600020015414156109b35760019150506109c6565b808060010191505061097d565b50600090505b91905056fea265627a7a7231582079ec1d23680ffd61a14b59bcd1ff87e65a148d4f7081a4208445d75f0d52916464736f6c63430005100032",
  "source": "// SPDX-License-Identifier: GPL-3.0\r\n\r\npragma solidity >=0.4.22 <0.8.0;\r\n\r\ncontract Halal {\r\n    struct MeatStorage {\r\n        uint id;\r\n        int temperature;\r\n        uint humidity;\r\n        bool isContaminated;\r\n        uint jakimCertificateId; // Store the JAKIM certificate ID\r\n        bool isHalal;\r\n    }\r\n\r\n    mapping(uint => MeatStorage) public meatStorages;\r\n    uint public meatStorageCount;\r\n\r\n    // Predefined JAKIM certificate IDs\r\n    uint[] public predefinedJakimCertificates = [\r\n        44278716344976,\r\n        85472987349265,\r\n        23454289672346,\r\n        92358673287487,\r\n        54289172648785,\r\n        45345754635254,\r\n        62463523573526,\r\n        24572562535326,\r\n        84562532464373,\r\n        34562354752624,\r\n        73634526245262,\r\n        34734626373462,\r\n        73465256235625,\r\n        97472643672251,\r\n        43156725141754,\r\n        34253627426437,\r\n        75873474362563,\r\n        54846666346347,\r\n        15236347435623,\r\n        78457362462451,\r\n        84562462372734,\r\n        73465274532135\r\n    ];\r\n\r\n    // Events for logging\r\n    event MeatStorageAdded(uint id, int temperature, uint humidity, bool isContaminated, uint jakimCertificateId, bool isHalal);\r\n    event MeatStorageUpdated(uint id, int temperature, uint humidity, bool isContaminated, uint jakimCertificateId, bool isHalal);\r\n    event MeatStorageDeleted(uint id);\r\n    event CertificateValidationFailed(uint id, uint jakimCertificateId);\r\n\r\n    // Function to add a meat storage entry\r\n    function addMeatStorage(uint _id, int _temperature, uint _humidity, bool _isContaminated, uint _jakimCertificateId) public {\r\n        require(_id > 0 && meatStorages[_id].id == 0, \"ID already exists\");\r\n        bool isHalal = verifyJakimCertificate(_jakimCertificateId) && _temperature <= -18 && !_isContaminated;\r\n        meatStorageCount++;\r\n        meatStorages[_id] = MeatStorage(_id, _temperature, _humidity, _isContaminated, _jakimCertificateId, isHalal);\r\n        if (isHalal) {\r\n            emit MeatStorageAdded(_id, _temperature, _humidity, _isContaminated, _jakimCertificateId, isHalal);\r\n        } else {\r\n            emit CertificateValidationFailed(_id, _jakimCertificateId);\r\n        }\r\n    }\r\n\r\n    // Function to update a meat storage entry\r\n    function updateMeatStorage(uint _id, int _temperature, uint _humidity, bool _isContaminated, uint _jakimCertificateId) public {\r\n    require(_id > 0 && _id <= meatStorageCount, \"Invalid ID\");\r\n    MeatStorage storage existingMeatStorage = meatStorages[_id];\r\n    bool isHalal = verifyJakimCertificate(_jakimCertificateId) && _temperature <= -18 && !_isContaminated;\r\n    meatStorages[_id] = MeatStorage(_id, _temperature != 0 ? _temperature : existingMeatStorage.temperature, _humidity != 0 ? _humidity : existingMeatStorage.humidity, _isContaminated, _jakimCertificateId != 0 ? _jakimCertificateId : existingMeatStorage.jakimCertificateId, isHalal);\r\n    if (isHalal) {\r\n        emit MeatStorageUpdated(_id, _temperature, _humidity, _isContaminated, _jakimCertificateId, isHalal);\r\n    } else {\r\n        emit CertificateValidationFailed(_id, _jakimCertificateId);\r\n    }}\r\n\r\n\r\n    // Function to delete a meat storage entry\r\n    function deleteMeatStorage(uint _id) public {\r\n        require(_id > 0 && _id <= meatStorageCount, \"Invalid ID\");\r\n        delete meatStorages[_id];\r\n        emit MeatStorageDeleted(_id);\r\n    }\r\n\r\n    // Function to get a meat storage entry\r\n    function getMeatStorage(uint _id) public view returns (uint, int, uint, bool, uint, bool) {\r\n        MeatStorage storage ms = meatStorages[_id];\r\n        return (ms.id, ms.temperature, ms.humidity, ms.isContaminated, ms.jakimCertificateId, ms.isHalal);\r\n    }\r\n\r\n    // Function to verify JAKIM certificate IDs\r\n    function verifyJakimCertificate(uint _jakimCertificateId) internal view returns (bool) {\r\n        for (uint i = 0; i < predefinedJakimCertificates.length; i++) {\r\n            if (predefinedJakimCertificates[i] == _jakimCertificateId) {\r\n                return true;\r\n            }\r\n        }\r\n        return false;\r\n    }\r\n}\r\n",
  "sourcePath": "C:\\xampp\\htdocs\\fyp-sql\\contracts\\Halal.sol",
  "compiler": {
    "name": "solc",
    "version": "0.5.16+commit.9c3226ce.Emscripten.clang"
  },
  "schemaVersion": "3.4.16",
  "updatedAt": "2024-07-18T03:58:30.529Z",
  "networkType": "ethereum",
  "devdoc": {
    "methods": {}
  },
  "userdoc": {
    "methods": {}
  }
}